{
  "_format": "hh-sol-artifact-1",
  "contractName": "RFPSimpleStrategy",
  "sourceName": "contracts/RFPSimpleStrategy.sol",
  "abi": [
    {
      "anonymous": false,
      "inputs": [
        {
          "indexed": false,
          "internalType": "uint256",
          "name": "recipientId",
          "type": "uint256"
        },
        {
          "indexed": false,
          "internalType": "uint256",
          "name": "amount",
          "type": "uint256"
        }
      ],
      "name": "Allocation",
      "type": "event"
    },
    {
      "anonymous": false,
      "inputs": [
        {
          "indexed": false,
          "internalType": "uint256",
          "name": "recipientId",
          "type": "uint256"
        },
        {
          "indexed": false,
          "internalType": "uint256",
          "name": "amount",
          "type": "uint256"
        }
      ],
      "name": "Distribution",
      "type": "event"
    },
    {
      "anonymous": false,
      "inputs": [
        {
          "indexed": false,
          "internalType": "uint256",
          "name": "recipientId",
          "type": "uint256"
        },
        {
          "indexed": false,
          "internalType": "string[]",
          "name": "milestones",
          "type": "string[]"
        }
      ],
      "name": "MilestonesSet",
      "type": "event"
    },
    {
      "inputs": [
        {
          "internalType": "uint256",
          "name": "recipientId",
          "type": "uint256"
        }
      ],
      "name": "allocate",
      "outputs": [],
      "stateMutability": "payable",
      "type": "function"
    },
    {
      "inputs": [
        {
          "internalType": "uint256",
          "name": "recipientId",
          "type": "uint256"
        },
        {
          "internalType": "uint256",
          "name": "milestoneIndex",
          "type": "uint256"
        }
      ],
      "name": "attestMilestone",
      "outputs": [],
      "stateMutability": "nonpayable",
      "type": "function"
    },
    {
      "inputs": [
        {
          "internalType": "uint256",
          "name": "recipientId",
          "type": "uint256"
        },
        {
          "internalType": "uint256",
          "name": "milestoneIndex",
          "type": "uint256"
        }
      ],
      "name": "distribute",
      "outputs": [],
      "stateMutability": "nonpayable",
      "type": "function"
    },
    {
      "inputs": [],
      "name": "recipientCount",
      "outputs": [
        {
          "internalType": "uint256",
          "name": "",
          "type": "uint256"
        }
      ],
      "stateMutability": "view",
      "type": "function"
    },
    {
      "inputs": [
        {
          "internalType": "uint256",
          "name": "",
          "type": "uint256"
        }
      ],
      "name": "recipients",
      "outputs": [
        {
          "internalType": "address",
          "name": "addr",
          "type": "address"
        },
        {
          "internalType": "uint256",
          "name": "milestoneIndex",
          "type": "uint256"
        },
        {
          "internalType": "uint256",
          "name": "balance",
          "type": "uint256"
        },
        {
          "internalType": "bool",
          "name": "active",
          "type": "bool"
        }
      ],
      "stateMutability": "view",
      "type": "function"
    },
    {
      "inputs": [
        {
          "internalType": "address",
          "name": "recipient",
          "type": "address"
        }
      ],
      "name": "registerRecipient",
      "outputs": [
        {
          "internalType": "uint256",
          "name": "",
          "type": "uint256"
        }
      ],
      "stateMutability": "nonpayable",
      "type": "function"
    },
    {
      "inputs": [
        {
          "internalType": "uint256",
          "name": "recipientId",
          "type": "uint256"
        },
        {
          "internalType": "string[]",
          "name": "milestones",
          "type": "string[]"
        }
      ],
      "name": "setMilestones",
      "outputs": [],
      "stateMutability": "nonpayable",
      "type": "function"
    },
    {
      "inputs": [
        {
          "internalType": "uint256",
          "name": "recipientId",
          "type": "uint256"
        },
        {
          "internalType": "uint256",
          "name": "milestoneIndex",
          "type": "uint256"
        }
      ],
      "name": "submitUpcomingMilestone",
      "outputs": [],
      "stateMutability": "view",
      "type": "function"
    },
    {
      "inputs": [
        {
          "internalType": "uint256",
          "name": "amount",
          "type": "uint256"
        }
      ],
      "name": "withdraw",
      "outputs": [],
      "stateMutability": "nonpayable",
      "type": "function"
    },
    {
      "stateMutability": "payable",
      "type": "receive"
    }
  ],
  "bytecode": "0x608060405234801561001057600080fd5b5061150f806100206000396000f3fe60806040526004361061008a5760003560e01c80634e9912b2116100595780634e9912b21461013c5780637625391a1461016557806390ca796b1461018e578063a8badaa5146101aa578063d1bc76a1146101e757610091565b8063083b9bf91461009657806321e6c3a7146100bf57806322eabb8e146100e85780632e1a7d4d1461011357610091565b3661009157005b600080fd5b3480156100a257600080fd5b506100bd60048036038101906100b89190610da7565b610227565b005b3480156100cb57600080fd5b506100e660048036038101906100e19190610dff565b6103a6565b005b3480156100f457600080fd5b506100fd6104bd565b60405161010a91906111a6565b60405180910390f35b34801561011f57600080fd5b5061013a60048036038101906101359190610d7e565b6104c3565b005b34801561014857600080fd5b50610163600480360381019061015e9190610dff565b61050d565b005b34801561017157600080fd5b5061018c60048036038101906101879190610dff565b6105f5565b005b6101a860048036038101906101a39190610d7e565b6107e0565b005b3480156101b657600080fd5b506101d160048036038101906101cc9190610d55565b6108ed565b6040516101de91906111a6565b60405180910390f35b3480156101f357600080fd5b5061020e60048036038101906102099190610d7e565b610a76565b60405161021e94939291906110a1565b60405180910390f35b60008084815260200190815260200160002060040160009054906101000a900460ff16610289576040517f08c379a000000000000000000000000000000000000000000000000000000000815260040161028090611186565b60405180910390fd5b60008084815260200190815260200160002060010160006102aa9190610ad3565b60005b8282905081101561036557600080858152602001908152602001600020600101838383818110610306577f4e487b7100000000000000000000000000000000000000000000000000000000600052603260045260246000fd5b9050602002810190610318919061121c565b90918060018154018082558091505060019003906000526020600020016000909192909192909192909192509190610351929190610af4565b50808061035d906113f3565b9150506102ad565b507f56854da779879c5930e80cbd5fe9d6fca151e19fa012c148c2c8307ffdf1923b838383604051610399939291906111c1565b60405180910390a1505050565b60008083815260200190815260200160002060040160009054906101000a900460ff16610408576040517f08c379a00000000000000000000000000000000000000000000000000000000081526004016103ff90611186565b60405180910390fd5b600080838152602001908152602001600020600101805490508110610462576040517f08c379a000000000000000000000000000000000000000000000000000000000815260040161045990611126565b60405180910390fd5b6000808381526020019081526020016000206002015481146104b9576040517f08c379a00000000000000000000000000000000000000000000000000000000081526004016104b090611146565b60405180910390fd5b5050565b60015481565b3373ffffffffffffffffffffffffffffffffffffffff166108fc829081150290604051600060405180830381858888f19350505050158015610509573d6000803e3d6000fd5b5050565b60008083815260200190815260200160002060040160009054906101000a900460ff1661056f576040517f08c379a000000000000000000000000000000000000000000000000000000000815260040161056690611186565b60405180910390fd5b6000808381526020019081526020016000206002015481146105c6576040517f08c379a00000000000000000000000000000000000000000000000000000000081526004016105bd90611146565b60405180910390fd5b60008083815260200190815260200160002060020160008154809291906105ec906113f3565b91905055505050565b60008083815260200190815260200160002060040160009054906101000a900460ff16610657576040517f08c379a000000000000000000000000000000000000000000000000000000000815260040161064e90611186565b60405180910390fd5b6000808381526020019081526020016000206002015481106106ae576040517f08c379a00000000000000000000000000000000000000000000000000000000081526004016106a590611106565b60405180910390fd5b60008060008481526020019081526020016000206003015490506000811161070b576040517f08c379a0000000000000000000000000000000000000000000000000000000008152600401610702906110e6565b60405180910390fd5b60008084815260200190815260200160002060000160009054906101000a900473ffffffffffffffffffffffffffffffffffffffff1673ffffffffffffffffffffffffffffffffffffffff166108fc829081150290604051600060405180830381858888f19350505050158015610786573d6000803e3d6000fd5b506000806000858152602001908152602001600020600301819055507f6906cb29ddf55e7857e8b4ca9a2104d586db16c81fb113ceaafcc6213b06ba1c83826040516107d39291906111f3565b60405180910390a1505050565b60008082815260200190815260200160002060040160009054906101000a900460ff16610842576040517f08c379a000000000000000000000000000000000000000000000000000000000815260040161083990611186565b60405180910390fd5b60003411610885576040517f08c379a000000000000000000000000000000000000000000000000000000000815260040161087c90611166565b60405180910390fd5b3460008083815260200190815260200160002060030160008282546108aa9190611314565b925050819055507f2ccf21bc8a43b499670fe41c33ca0f7b56c83863aca7c1494f0ede9068d2731a81346040516108e29291906111f3565b60405180910390a150565b600060016000815480929190610902906113f3565b91905055506040518060a001604052808373ffffffffffffffffffffffffffffffffffffffff168152602001600067ffffffffffffffff81111561096f577f4e487b7100000000000000000000000000000000000000000000000000000000600052604160045260246000fd5b6040519080825280602002602001820160405280156109a257816020015b606081526020019060019003908161098d5790505b508152602001600081526020016000815260200160011515815250600080600154815260200190815260200160002060008201518160000160006101000a81548173ffffffffffffffffffffffffffffffffffffffff021916908373ffffffffffffffffffffffffffffffffffffffff1602179055506020820151816001019080519060200190610a34929190610b7a565b50604082015181600201556060820151816003015560808201518160040160006101000a81548160ff0219169083151502179055509050506001549050919050565b60006020528060005260406000206000915090508060000160009054906101000a900473ffffffffffffffffffffffffffffffffffffffff16908060020154908060030154908060040160009054906101000a900460ff16905084565b5080546000825590600052602060002090810190610af19190610bda565b50565b828054610b00906113c1565b90600052602060002090601f016020900481019282610b225760008555610b69565b82601f10610b3b57803560ff1916838001178555610b69565b82800160010185558215610b69579182015b82811115610b68578235825591602001919060010190610b4d565b5b509050610b769190610bfe565b5090565b828054828255906000526020600020908101928215610bc9579160200282015b82811115610bc8578251829080519060200190610bb8929190610c1b565b5091602001919060010190610b9a565b5b509050610bd69190610bda565b5090565b5b80821115610bfa5760008181610bf19190610ca1565b50600101610bdb565b5090565b5b80821115610c17576000816000905550600101610bff565b5090565b828054610c27906113c1565b90600052602060002090601f016020900481019282610c495760008555610c90565b82601f10610c6257805160ff1916838001178555610c90565b82800160010185558215610c90579182015b82811115610c8f578251825591602001919060010190610c74565b5b509050610c9d9190610bfe565b5090565b508054610cad906113c1565b6000825580601f10610cbf5750610cde565b601f016020900490600052602060002090810190610cdd9190610bfe565b5b50565b600081359050610cf0816114ab565b92915050565b60008083601f840112610d0857600080fd5b8235905067ffffffffffffffff811115610d2157600080fd5b602083019150836020820283011115610d3957600080fd5b9250929050565b600081359050610d4f816114c2565b92915050565b600060208284031215610d6757600080fd5b6000610d7584828501610ce1565b91505092915050565b600060208284031215610d9057600080fd5b6000610d9e84828501610d40565b91505092915050565b600080600060408486031215610dbc57600080fd5b6000610dca86828701610d40565b935050602084013567ffffffffffffffff811115610de757600080fd5b610df386828701610cf6565b92509250509250925092565b60008060408385031215610e1257600080fd5b6000610e2085828601610d40565b9250506020610e3185828601610d40565b9150509250929050565b6000610e48848484610ee5565b90509392505050565b610e5a8161136a565b82525050565b6000610e6c838561128a565b935083602084028501610e7e84611273565b8060005b87811015610ec4578484038952610e9982846112bd565b610ea4868284610e3b565b9550610eaf8461127d565b935060208b019a505050600181019050610e82565b50829750879450505050509392505050565b610edf8161137c565b82525050565b6000610ef1838561129b565b9350610efe8385846113b2565b610f078361149a565b840190509392505050565b6000610f1f6016836112ac565b91507f4e6f2066756e647320746f2064697374726962757465000000000000000000006000830152602082019050919050565b6000610f5f601b836112ac565b91507f4d696c6573746f6e65206e6f742079657420636f6d706c6574656400000000006000830152602082019050919050565b6000610f9f6017836112ac565b91507f496e76616c6964206d696c6573746f6e6520696e6465780000000000000000006000830152602082019050919050565b6000610fdf6016836112ac565b91507f4d696c6573746f6e65206e6f7420696e206f72646572000000000000000000006000830152602082019050919050565b600061101f601b836112ac565b91507f4d7573742073656e6420457468657220746f20616c6c6f6361746500000000006000830152602082019050919050565b600061105f6017836112ac565b91507f526563697069656e74206973206e6f74206163746976650000000000000000006000830152602082019050919050565b61109b816113a8565b82525050565b60006080820190506110b66000830187610e51565b6110c36020830186611092565b6110d06040830185611092565b6110dd6060830184610ed6565b95945050505050565b600060208201905081810360008301526110ff81610f12565b9050919050565b6000602082019050818103600083015261111f81610f52565b9050919050565b6000602082019050818103600083015261113f81610f92565b9050919050565b6000602082019050818103600083015261115f81610fd2565b9050919050565b6000602082019050818103600083015261117f81611012565b9050919050565b6000602082019050818103600083015261119f81611052565b9050919050565b60006020820190506111bb6000830184611092565b92915050565b60006040820190506111d66000830186611092565b81810360208301526111e9818486610e60565b9050949350505050565b60006040820190506112086000830185611092565b6112156020830184611092565b9392505050565b6000808335600160200384360303811261123557600080fd5b80840192508235915067ffffffffffffffff82111561125357600080fd5b60208301925060018202360383131561126b57600080fd5b509250929050565b6000819050919050565b6000602082019050919050565b600082825260208201905092915050565b600082825260208201905092915050565b600082825260208201905092915050565b600080833560016020038436030381126112d657600080fd5b83810192508235915060208301925067ffffffffffffffff8211156112fa57600080fd5b60018202360384131561130c57600080fd5b509250929050565b600061131f826113a8565b915061132a836113a8565b9250827fffffffffffffffffffffffffffffffffffffffffffffffffffffffffffffffff0382111561135f5761135e61143c565b5b828201905092915050565b600061137582611388565b9050919050565b60008115159050919050565b600073ffffffffffffffffffffffffffffffffffffffff82169050919050565b6000819050919050565b82818337600083830152505050565b600060028204905060018216806113d957607f821691505b602082108114156113ed576113ec61146b565b5b50919050565b60006113fe826113a8565b91507fffffffffffffffffffffffffffffffffffffffffffffffffffffffffffffffff8214156114315761143061143c565b5b600182019050919050565b7f4e487b7100000000000000000000000000000000000000000000000000000000600052601160045260246000fd5b7f4e487b7100000000000000000000000000000000000000000000000000000000600052602260045260246000fd5b6000601f19601f8301169050919050565b6114b48161136a565b81146114bf57600080fd5b50565b6114cb816113a8565b81146114d657600080fd5b5056fea264697066735822122046a51d861bd62d97dca4aab02eb149c6e7cbaeba0dc391df61d4c493ce2f0e9e64736f6c63430008000033",
  "linkReferences": {},
  "deployedLinkReferences": {}
}