{
  "_format": "hh-sol-artifact-1",
  "contractName": "Allo",
  "sourceName": "contracts/Allo.sol",
  "abi": [
    {
      "anonymous": false,
      "inputs": [
        {
          "indexed": false,
          "internalType": "uint256",
          "name": "recipientId",
          "type": "uint256"
        },
        {
          "indexed": false,
          "internalType": "uint256",
          "name": "amount",
          "type": "uint256"
        }
      ],
      "name": "Allocation",
      "type": "event"
    },
    {
      "anonymous": false,
      "inputs": [
        {
          "indexed": false,
          "internalType": "uint256",
          "name": "recipientId",
          "type": "uint256"
        },
        {
          "indexed": false,
          "internalType": "uint256",
          "name": "milestoneIndex",
          "type": "uint256"
        }
      ],
      "name": "Distribution",
      "type": "event"
    },
    {
      "anonymous": false,
      "inputs": [
        {
          "indexed": false,
          "internalType": "uint256",
          "name": "recipientId",
          "type": "uint256"
        },
        {
          "indexed": false,
          "internalType": "uint256",
          "name": "milestoneIndex",
          "type": "uint256"
        }
      ],
      "name": "MilestoneAttested",
      "type": "event"
    },
    {
      "anonymous": false,
      "inputs": [
        {
          "indexed": false,
          "internalType": "uint256",
          "name": "recipientId",
          "type": "uint256"
        },
        {
          "indexed": false,
          "internalType": "uint256",
          "name": "milestoneIndex",
          "type": "uint256"
        }
      ],
      "name": "MilestoneSubmitted",
      "type": "event"
    },
    {
      "anonymous": false,
      "inputs": [
        {
          "indexed": false,
          "internalType": "uint256",
          "name": "recipientId",
          "type": "uint256"
        }
      ],
      "name": "MilestonesSet",
      "type": "event"
    },
    {
      "anonymous": false,
      "inputs": [
        {
          "indexed": false,
          "internalType": "uint256",
          "name": "poolId",
          "type": "uint256"
        }
      ],
      "name": "PoolClosed",
      "type": "event"
    },
    {
      "anonymous": false,
      "inputs": [
        {
          "indexed": false,
          "internalType": "uint256",
          "name": "poolId",
          "type": "uint256"
        },
        {
          "indexed": false,
          "internalType": "address",
          "name": "strategy",
          "type": "address"
        }
      ],
      "name": "PoolCreated",
      "type": "event"
    },
    {
      "anonymous": false,
      "inputs": [
        {
          "indexed": false,
          "internalType": "uint256",
          "name": "recipientId",
          "type": "uint256"
        },
        {
          "indexed": false,
          "internalType": "address",
          "name": "recipient",
          "type": "address"
        }
      ],
      "name": "RecipientRegistered",
      "type": "event"
    },
    {
      "inputs": [
        {
          "internalType": "uint256",
          "name": "poolId",
          "type": "uint256"
        },
        {
          "internalType": "uint256",
          "name": "recipientId",
          "type": "uint256"
        }
      ],
      "name": "allocate",
      "outputs": [],
      "stateMutability": "payable",
      "type": "function"
    },
    {
      "inputs": [
        {
          "internalType": "uint256",
          "name": "poolId",
          "type": "uint256"
        },
        {
          "internalType": "uint256",
          "name": "recipientId",
          "type": "uint256"
        },
        {
          "internalType": "uint256",
          "name": "milestoneIndex",
          "type": "uint256"
        }
      ],
      "name": "attestMilestone",
      "outputs": [],
      "stateMutability": "nonpayable",
      "type": "function"
    },
    {
      "inputs": [
        {
          "internalType": "address",
          "name": "strategy",
          "type": "address"
        }
      ],
      "name": "createPool",
      "outputs": [
        {
          "internalType": "uint256",
          "name": "",
          "type": "uint256"
        }
      ],
      "stateMutability": "nonpayable",
      "type": "function"
    },
    {
      "inputs": [
        {
          "internalType": "uint256",
          "name": "poolId",
          "type": "uint256"
        },
        {
          "internalType": "uint256",
          "name": "recipientId",
          "type": "uint256"
        },
        {
          "internalType": "uint256",
          "name": "milestoneIndex",
          "type": "uint256"
        }
      ],
      "name": "distribute",
      "outputs": [],
      "stateMutability": "nonpayable",
      "type": "function"
    },
    {
      "inputs": [],
      "name": "poolCount",
      "outputs": [
        {
          "internalType": "uint256",
          "name": "",
          "type": "uint256"
        }
      ],
      "stateMutability": "view",
      "type": "function"
    },
    {
      "inputs": [
        {
          "internalType": "uint256",
          "name": "",
          "type": "uint256"
        }
      ],
      "name": "pools",
      "outputs": [
        {
          "internalType": "address",
          "name": "strategy",
          "type": "address"
        },
        {
          "internalType": "bool",
          "name": "isActive",
          "type": "bool"
        }
      ],
      "stateMutability": "view",
      "type": "function"
    },
    {
      "inputs": [],
      "name": "recipientCount",
      "outputs": [
        {
          "internalType": "uint256",
          "name": "",
          "type": "uint256"
        }
      ],
      "stateMutability": "view",
      "type": "function"
    },
    {
      "inputs": [
        {
          "internalType": "uint256",
          "name": "",
          "type": "uint256"
        }
      ],
      "name": "recipients",
      "outputs": [
        {
          "internalType": "uint256",
          "name": "id",
          "type": "uint256"
        },
        {
          "internalType": "address",
          "name": "addr",
          "type": "address"
        },
        {
          "internalType": "uint256",
          "name": "balance",
          "type": "uint256"
        }
      ],
      "stateMutability": "view",
      "type": "function"
    },
    {
      "inputs": [
        {
          "internalType": "uint256",
          "name": "poolId",
          "type": "uint256"
        }
      ],
      "name": "registerRecipient",
      "outputs": [
        {
          "internalType": "uint256",
          "name": "",
          "type": "uint256"
        }
      ],
      "stateMutability": "nonpayable",
      "type": "function"
    },
    {
      "inputs": [
        {
          "internalType": "uint256",
          "name": "poolId",
          "type": "uint256"
        },
        {
          "internalType": "uint256",
          "name": "recipientId",
          "type": "uint256"
        },
        {
          "internalType": "string[]",
          "name": "milestones",
          "type": "string[]"
        }
      ],
      "name": "setMilestones",
      "outputs": [],
      "stateMutability": "nonpayable",
      "type": "function"
    },
    {
      "inputs": [
        {
          "internalType": "uint256",
          "name": "poolId",
          "type": "uint256"
        },
        {
          "internalType": "bool",
          "name": "isActive",
          "type": "bool"
        }
      ],
      "name": "setPoolActive",
      "outputs": [],
      "stateMutability": "nonpayable",
      "type": "function"
    },
    {
      "inputs": [
        {
          "internalType": "uint256",
          "name": "poolId",
          "type": "uint256"
        },
        {
          "internalType": "uint256",
          "name": "recipientId",
          "type": "uint256"
        },
        {
          "internalType": "uint256",
          "name": "milestoneIndex",
          "type": "uint256"
        }
      ],
      "name": "submitUpcomingMilestone",
      "outputs": [],
      "stateMutability": "nonpayable",
      "type": "function"
    },
    {
      "stateMutability": "payable",
      "type": "receive"
    }
  ],
  "bytecode": "0x608060405234801561001057600080fd5b50611741806100206000396000f3fe6080604052600436106100ab5760003560e01c8063ac4afa3811610064578063ac4afa38146101b6578063c61f9927146101f4578063d1bc76a114610231578063d2de6ec514610270578063ea17fa9314610299578063f525cb68146102c2576100b2565b806305671b49146100b7578063172cfa4c146100e057806322eabb8e146100fc5780636c7ebec1146101275780639049f9d214610150578063a7d772671461018d576100b2565b366100b257005b600080fd5b3480156100c357600080fd5b506100de60048036038101906100d99190611180565b6102ed565b005b6100fa60048036038101906100f591906110d8565b61044d565b005b34801561010857600080fd5b5061011161061b565b60405161011e9190611419565b60405180910390f35b34801561013357600080fd5b5061014e60048036038101906101499190611180565b610621565b005b34801561015c57600080fd5b5061017760048036038101906101729190611021565b610781565b6040516101849190611419565b60405180910390f35b34801561019957600080fd5b506101b460048036038101906101af9190611114565b61088c565b005b3480156101c257600080fd5b506101dd60048036038101906101d8919061104a565b6109ed565b6040516101eb929190611390565b60405180910390f35b34801561020057600080fd5b5061021b6004803603810190610216919061104a565b610a3e565b6040516102289190611419565b60405180910390f35b34801561023d57600080fd5b506102586004803603810190610253919061104a565b610c6d565b6040516102679392919061145d565b60405180910390f35b34801561027c57600080fd5b5061029760048036038101906102929190611180565b610cb7565b005b3480156102a557600080fd5b506102c060048036038101906102bb919061109c565b610f0f565b005b3480156102ce57600080fd5b506102d7610f7d565b6040516102e49190611419565b60405180910390f35b8260008082815260200190815260200160002060000160149054906101000a900460ff16610350576040517f08c379a0000000000000000000000000000000000000000000000000000000008152600401610347906113d9565b60405180910390fd5b600080600086815260200190815260200160002060000160009054906101000a900473ffffffffffffffffffffffffffffffffffffffff1690508073ffffffffffffffffffffffffffffffffffffffff166321e6c3a76001600087815260200190815260200160002060000154856040518363ffffffff1660e01b81526004016103db9291906114c6565b600060405180830381600087803b1580156103f557600080fd5b505af1158015610409573d6000803e3d6000fd5b505050507f26cf581e2709e0615164af15a371b2dd10fb48d5baed91e9eacd557633c16bcb848460405161043e9291906114c6565b60405180910390a15050505050565b8160008082815260200190815260200160002060000160149054906101000a900460ff166104b0576040517f08c379a00000000000000000000000000000000000000000000000000000000081526004016104a7906113d9565b60405180910390fd5b600034116104f3576040517f08c379a00000000000000000000000000000000000000000000000000000000081526004016104ea906113f9565b60405180910390fd5b600080600085815260200190815260200160002060000160009054906101000a900473ffffffffffffffffffffffffffffffffffffffff1690508073ffffffffffffffffffffffffffffffffffffffff166390ca796b3460016000878152602001908152602001600020600001546040518363ffffffff1660e01b815260040161057d9190611419565b6000604051808303818588803b15801561059657600080fd5b505af11580156105aa573d6000803e3d6000fd5b5050505050346001600085815260200190815260200160002060020160008282546105d59190611590565b925050819055507f2ccf21bc8a43b499670fe41c33ca0f7b56c83863aca7c1494f0ede9068d2731a833460405161060d9291906114c6565b60405180910390a150505050565b60035481565b8260008082815260200190815260200160002060000160149054906101000a900460ff16610684576040517f08c379a000000000000000000000000000000000000000000000000000000000815260040161067b906113d9565b60405180910390fd5b600080600086815260200190815260200160002060000160009054906101000a900473ffffffffffffffffffffffffffffffffffffffff1690508073ffffffffffffffffffffffffffffffffffffffff16634e9912b26001600087815260200190815260200160002060000154856040518363ffffffff1660e01b815260040161070f9291906114c6565b600060405180830381600087803b15801561072957600080fd5b505af115801561073d573d6000803e3d6000fd5b505050507fa7eed10fb50ba328a1d4b51aa093b5946e1a4384e69e136881fb487d84017bb784846040516107729291906114c6565b60405180910390a15050505050565b6000600260008154809291906107969061163d565b919050555060405180604001604052808373ffffffffffffffffffffffffffffffffffffffff16815260200160011515815250600080600254815260200190815260200160002060008201518160000160006101000a81548173ffffffffffffffffffffffffffffffffffffffff021916908373ffffffffffffffffffffffffffffffffffffffff16021790555060208201518160000160146101000a81548160ff0219169083151502179055509050507f65fc0eb45954044fb55e1b01344d5d72fbfdf88e732d955f73bb7fb2bcc131e96002548360405161087a929190611434565b60405180910390a16002549050919050565b8360008082815260200190815260200160002060000160149054906101000a900460ff166108ef576040517f08c379a00000000000000000000000000000000000000000000000000000000081526004016108e6906113d9565b60405180910390fd5b600080600087815260200190815260200160002060000160009054906101000a900473ffffffffffffffffffffffffffffffffffffffff1690508073ffffffffffffffffffffffffffffffffffffffff1663083b9bf9600160008881526020019081526020016000206000015486866040518463ffffffff1660e01b815260040161097c93929190611494565b600060405180830381600087803b15801561099657600080fd5b505af11580156109aa573d6000803e3d6000fd5b505050507f5d89f885f30c3150c167b2c31128bdf9a126180d134fa1d434f7edceae288118856040516109dd9190611419565b60405180910390a1505050505050565b60006020528060005260406000206000915090508060000160009054906101000a900473ffffffffffffffffffffffffffffffffffffffff16908060000160149054906101000a900460ff16905082565b60008160008082815260200190815260200160002060000160149054906101000a900460ff16610aa3576040517f08c379a0000000000000000000000000000000000000000000000000000000008152600401610a9a906113d9565b60405180910390fd5b600080600085815260200190815260200160002060000160009054906101000a900473ffffffffffffffffffffffffffffffffffffffff16905060008173ffffffffffffffffffffffffffffffffffffffff1663a8badaa5336040518263ffffffff1660e01b8152600401610b189190611375565b602060405180830381600087803b158015610b3257600080fd5b505af1158015610b46573d6000803e3d6000fd5b505050506040513d601f19601f82011682018060405250810190610b6a9190611073565b905060036000815480929190610b7f9061163d565b919050555060405180606001604052808281526020013373ffffffffffffffffffffffffffffffffffffffff16815260200160008152506001600060035481526020019081526020016000206000820151816000015560208201518160010160006101000a81548173ffffffffffffffffffffffffffffffffffffffff021916908373ffffffffffffffffffffffffffffffffffffffff160217905550604082015181600201559050507f62ade2052d75702ce80b8f4d4d65de77bcbb50237666fbad104e2ec3689d8a9f8133604051610c5a929190611434565b60405180910390a1809350505050919050565b60016020528060005260406000206000915090508060000154908060010160009054906101000a900473ffffffffffffffffffffffffffffffffffffffff16908060020154905083565b8260008082815260200190815260200160002060000160149054906101000a900460ff16610d1a576040517f08c379a0000000000000000000000000000000000000000000000000000000008152600401610d11906113d9565b60405180910390fd5b600080600086815260200190815260200160002060000160009054906101000a900473ffffffffffffffffffffffffffffffffffffffff1690508073ffffffffffffffffffffffffffffffffffffffff16637625391a6001600087815260200190815260200160002060000154856040518363ffffffff1660e01b8152600401610da59291906114c6565b600060405180830381600087803b158015610dbf57600080fd5b505af1158015610dd3573d6000803e3d6000fd5b5050505060006001600086815260200190815260200160002060020154905060008111610e35576040517f08c379a0000000000000000000000000000000000000000000000000000000008152600401610e2c906113b9565b60405180910390fd5b6001600086815260200190815260200160002060010160009054906101000a900473ffffffffffffffffffffffffffffffffffffffff1673ffffffffffffffffffffffffffffffffffffffff166108fc829081150290604051600060405180830381858888f19350505050158015610eb1573d6000803e3d6000fd5b50600060016000878152602001908152602001600020600201819055507f6906cb29ddf55e7857e8b4ca9a2104d586db16c81fb113ceaafcc6213b06ba1c8585604051610eff9291906114c6565b60405180910390a1505050505050565b8060008084815260200190815260200160002060000160146101000a81548160ff02191690831515021790555080610f79577f925a19753e677c9dc36a80e0fc824ca0c5b1afde494872b43daccab9ffeaffd482604051610f709190611419565b60405180910390a15b5050565b60025481565b600081359050610f92816116c6565b92915050565b60008083601f840112610faa57600080fd5b8235905067ffffffffffffffff811115610fc357600080fd5b602083019150836020820283011115610fdb57600080fd5b9250929050565b600081359050610ff1816116dd565b92915050565b600081359050611006816116f4565b92915050565b60008151905061101b816116f4565b92915050565b60006020828403121561103357600080fd5b600061104184828501610f83565b91505092915050565b60006020828403121561105c57600080fd5b600061106a84828501610ff7565b91505092915050565b60006020828403121561108557600080fd5b60006110938482850161100c565b91505092915050565b600080604083850312156110af57600080fd5b60006110bd85828601610ff7565b92505060206110ce85828601610fe2565b9150509250929050565b600080604083850312156110eb57600080fd5b60006110f985828601610ff7565b925050602061110a85828601610ff7565b9150509250929050565b6000806000806060858703121561112a57600080fd5b600061113887828801610ff7565b945050602061114987828801610ff7565b935050604085013567ffffffffffffffff81111561116657600080fd5b61117287828801610f98565b925092505092959194509250565b60008060006060848603121561119557600080fd5b60006111a386828701610ff7565b93505060206111b486828701610ff7565b92505060406111c586828701610ff7565b9150509250925092565b60006111dc848484611279565b90509392505050565b6111ee816115e6565b82525050565b60006112008385611506565b935083602084028501611212846114ef565b8060005b8781101561125857848403895261122d8284611539565b6112388682846111cf565b9550611243846114f9565b935060208b019a505050600181019050611216565b50829750879450505050509392505050565b611273816115f8565b82525050565b60006112858385611517565b935061129283858461162e565b61129b836116b5565b840190509392505050565b60006112b3601683611528565b91507f4e6f2066756e647320746f2064697374726962757465000000000000000000006000830152602082019050919050565b60006112f3601083611528565b91507f506f6f6c20697320696e616374697665000000000000000000000000000000006000830152602082019050919050565b6000611333601b83611528565b91507f4d7573742073656e6420457468657220746f20616c6c6f6361746500000000006000830152602082019050919050565b61136f81611624565b82525050565b600060208201905061138a60008301846111e5565b92915050565b60006040820190506113a560008301856111e5565b6113b2602083018461126a565b9392505050565b600060208201905081810360008301526113d2816112a6565b9050919050565b600060208201905081810360008301526113f2816112e6565b9050919050565b6000602082019050818103600083015261141281611326565b9050919050565b600060208201905061142e6000830184611366565b92915050565b60006040820190506114496000830185611366565b61145660208301846111e5565b9392505050565b60006060820190506114726000830186611366565b61147f60208301856111e5565b61148c6040830184611366565b949350505050565b60006040820190506114a96000830186611366565b81810360208301526114bc8184866111f4565b9050949350505050565b60006040820190506114db6000830185611366565b6114e86020830184611366565b9392505050565b6000819050919050565b6000602082019050919050565b600082825260208201905092915050565b600082825260208201905092915050565b600082825260208201905092915050565b6000808335600160200384360303811261155257600080fd5b83810192508235915060208301925067ffffffffffffffff82111561157657600080fd5b60018202360384131561158857600080fd5b509250929050565b600061159b82611624565b91506115a683611624565b9250827fffffffffffffffffffffffffffffffffffffffffffffffffffffffffffffffff038211156115db576115da611686565b5b828201905092915050565b60006115f182611604565b9050919050565b60008115159050919050565b600073ffffffffffffffffffffffffffffffffffffffff82169050919050565b6000819050919050565b82818337600083830152505050565b600061164882611624565b91507fffffffffffffffffffffffffffffffffffffffffffffffffffffffffffffffff82141561167b5761167a611686565b5b600182019050919050565b7f4e487b7100000000000000000000000000000000000000000000000000000000600052601160045260246000fd5b6000601f19601f8301169050919050565b6116cf816115e6565b81146116da57600080fd5b50565b6116e6816115f8565b81146116f157600080fd5b50565b6116fd81611624565b811461170857600080fd5b5056fea264697066735822122090263d35fb806ff12875ae72c340f7c51acdfffb4a5a711c659b945cc6046d8864736f6c63430008000033",
  "linkReferences": {},
  "deployedLinkReferences": {}
}